{
  "contractName": "TaskManager",
  "abi": [
    {
      "anonymous": false,
      "inputs": [
        {
          "indexed": false,
          "internalType": "uint256",
          "name": "id",
          "type": "uint256"
        },
        {
          "indexed": false,
          "internalType": "string",
          "name": "ipfsHash",
          "type": "string"
        }
      ],
      "name": "TaskCompleted",
      "type": "event"
    },
    {
      "anonymous": false,
      "inputs": [
        {
          "indexed": false,
          "internalType": "uint256",
          "name": "id",
          "type": "uint256"
        },
        {
          "indexed": false,
          "internalType": "address",
          "name": "creator",
          "type": "address"
        },
        {
          "indexed": false,
          "internalType": "string",
          "name": "description",
          "type": "string"
        }
      ],
      "name": "TaskCreated",
      "type": "event"
    },
    {
      "inputs": [],
      "name": "taskCount",
      "outputs": [
        {
          "internalType": "uint256",
          "name": "",
          "type": "uint256"
        }
      ],
      "stateMutability": "view",
      "type": "function",
      "constant": true
    },
    {
      "inputs": [
        {
          "internalType": "uint256",
          "name": "",
          "type": "uint256"
        }
      ],
      "name": "tasks",
      "outputs": [
        {
          "internalType": "uint256",
          "name": "id",
          "type": "uint256"
        },
        {
          "internalType": "address",
          "name": "creator",
          "type": "address"
        },
        {
          "internalType": "string",
          "name": "description",
          "type": "string"
        },
        {
          "internalType": "bool",
          "name": "completed",
          "type": "bool"
        },
        {
          "internalType": "string",
          "name": "ipfsHash",
          "type": "string"
        }
      ],
      "stateMutability": "view",
      "type": "function",
      "constant": true
    },
    {
      "inputs": [
        {
          "internalType": "string",
          "name": "_description",
          "type": "string"
        }
      ],
      "name": "createTask",
      "outputs": [],
      "stateMutability": "nonpayable",
      "type": "function"
    },
    {
      "inputs": [
        {
          "internalType": "uint256",
          "name": "_id",
          "type": "uint256"
        },
        {
          "internalType": "string",
          "name": "_ipfsHash",
          "type": "string"
        }
      ],
      "name": "completeTask",
      "outputs": [],
      "stateMutability": "nonpayable",
      "type": "function"
    },
    {
      "inputs": [
        {
          "internalType": "uint256",
          "name": "_id",
          "type": "uint256"
        }
      ],
      "name": "getTask",
      "outputs": [
        {
          "internalType": "uint256",
          "name": "",
          "type": "uint256"
        },
        {
          "internalType": "address",
          "name": "",
          "type": "address"
        },
        {
          "internalType": "string",
          "name": "",
          "type": "string"
        },
        {
          "internalType": "bool",
          "name": "",
          "type": "bool"
        },
        {
          "internalType": "string",
          "name": "",
          "type": "string"
        }
      ],
      "stateMutability": "view",
      "type": "function",
      "constant": true
    }
  ],
  "bytecode": "0x60806040526000805534801561001457600080fd5b50610d7d806100246000396000f3fe608060405234801561001057600080fd5b50600436106100575760003560e01c8063111002aa1461005c5780631d65e77e1461007857806374aaa760146100ac5780638d977672146100c8578063b6cb58a5146100fc575b600080fd5b61007660048036038101906100719190610842565b61011a565b005b610092600480360381019061008d9190610883565b610284565b6040516100a3959493929190610a7f565b60405180910390f35b6100c660048036038101906100c191906108ac565b61047b565b005b6100e260048036038101906100dd9190610883565b6105a9565b6040516100f3959493929190610a7f565b60405180910390f35b61010461071c565b6040516101119190610a26565b60405180910390f35b60008081548092919061012c90610c49565b91905055506040518060a0016040528060005481526020013373ffffffffffffffffffffffffffffffffffffffff1681526020018281526020016000151581526020016040518060200160405280600081525081525060016000805481526020019081526020016000206000820151816000015560208201518160010160006101000a81548173ffffffffffffffffffffffffffffffffffffffff021916908373ffffffffffffffffffffffffffffffffffffffff1602179055506040820151816002019080519060200190610203929190610722565b5060608201518160030160006101000a81548160ff0219169083151502179055506080820151816004019080519060200190610240929190610722565b509050507f5b2493258cbc7169ad9389516998320ce25dc27637cea28ddd0d033af122bfa6600054338360405161027993929190610a41565b60405180910390a150565b6000806060600060606000600160008881526020019081526020016000206040518060a0016040529081600082015481526020016001820160009054906101000a900473ffffffffffffffffffffffffffffffffffffffff1673ffffffffffffffffffffffffffffffffffffffff1673ffffffffffffffffffffffffffffffffffffffff16815260200160028201805461031d90610c17565b80601f016020809104026020016040519081016040528092919081815260200182805461034990610c17565b80156103965780601f1061036b57610100808354040283529160200191610396565b820191906000526020600020905b81548152906001019060200180831161037957829003601f168201915b505050505081526020016003820160009054906101000a900460ff161515151581526020016004820180546103ca90610c17565b80601f01602080910402602001604051908101604052809291908181526020018280546103f690610c17565b80156104435780601f1061041857610100808354040283529160200191610443565b820191906000526020600020905b81548152906001019060200180831161042657829003601f168201915b505050505081525050905080600001518160200151826040015183606001518460800151955095509550955095505091939590929450565b60008211801561048d57506000548211155b6104cc576040517f08c379a00000000000000000000000000000000000000000000000000000000081526004016104c390610a06565b60405180910390fd5b60006001600084815260200190815260200160002090508060030160009054906101000a900460ff1615610535576040517f08c379a000000000000000000000000000000000000000000000000000000000815260040161052c906109e6565b60405180910390fd5b60018160030160006101000a81548160ff0219169083151502179055508181600401908051906020019061056a929190610722565b507f7e6ffc29fe63759579d96a0457a8f2e08339aca345bd469f59dc2e61f82a5aeb838360405161059c929190610ae0565b60405180910390a1505050565b60016020528060005260406000206000915090508060000154908060010160009054906101000a900473ffffffffffffffffffffffffffffffffffffffff16908060020180546105f890610c17565b80601f016020809104026020016040519081016040528092919081815260200182805461062490610c17565b80156106715780601f1061064657610100808354040283529160200191610671565b820191906000526020600020905b81548152906001019060200180831161065457829003601f168201915b5050505050908060030160009054906101000a900460ff169080600401805461069990610c17565b80601f01602080910402602001604051908101604052809291908181526020018280546106c590610c17565b80156107125780601f106106e757610100808354040283529160200191610712565b820191906000526020600020905b8154815290600101906020018083116106f557829003601f168201915b5050505050905085565b60005481565b82805461072e90610c17565b90600052602060002090601f0160209004810192826107505760008555610797565b82601f1061076957805160ff1916838001178555610797565b82800160010185558215610797579182015b8281111561079657825182559160200191906001019061077b565b5b5090506107a491906107a8565b5090565b5b808211156107c15760008160009055506001016107a9565b5090565b60006107d86107d384610b41565b610b10565b9050828152602081018484840111156107f057600080fd5b6107fb848285610bd5565b509392505050565b600082601f83011261081457600080fd5b81356108248482602086016107c5565b91505092915050565b60008135905061083c81610d30565b92915050565b60006020828403121561085457600080fd5b600082013567ffffffffffffffff81111561086e57600080fd5b61087a84828501610803565b91505092915050565b60006020828403121561089557600080fd5b60006108a38482850161082d565b91505092915050565b600080604083850312156108bf57600080fd5b60006108cd8582860161082d565b925050602083013567ffffffffffffffff8111156108ea57600080fd5b6108f685828601610803565b9150509250929050565b61090981610b8d565b82525050565b61091881610b9f565b82525050565b600061092982610b71565b6109338185610b7c565b9350610943818560208601610be4565b61094c81610d1f565b840191505092915050565b6000610964601683610b7c565b91507f5461736b20616c726561647920636f6d706c65746564000000000000000000006000830152602082019050919050565b60006109a4600f83610b7c565b91507f496e76616c6964207461736b20494400000000000000000000000000000000006000830152602082019050919050565b6109e081610bcb565b82525050565b600060208201905081810360008301526109ff81610957565b9050919050565b60006020820190508181036000830152610a1f81610997565b9050919050565b6000602082019050610a3b60008301846109d7565b92915050565b6000606082019050610a5660008301866109d7565b610a636020830185610900565b8181036040830152610a75818461091e565b9050949350505050565b600060a082019050610a9460008301886109d7565b610aa16020830187610900565b8181036040830152610ab3818661091e565b9050610ac2606083018561090f565b8181036080830152610ad4818461091e565b90509695505050505050565b6000604082019050610af560008301856109d7565b8181036020830152610b07818461091e565b90509392505050565b6000604051905081810181811067ffffffffffffffff82111715610b3757610b36610cf0565b5b8060405250919050565b600067ffffffffffffffff821115610b5c57610b5b610cf0565b5b601f19601f8301169050602081019050919050565b600081519050919050565b600082825260208201905092915050565b6000610b9882610bab565b9050919050565b60008115159050919050565b600073ffffffffffffffffffffffffffffffffffffffff82169050919050565b6000819050919050565b82818337600083830152505050565b60005b83811015610c02578082015181840152602081019050610be7565b83811115610c11576000848401525b50505050565b60006002820490506001821680610c2f57607f821691505b60208210811415610c4357610c42610cc1565b5b50919050565b6000610c5482610bcb565b91507fffffffffffffffffffffffffffffffffffffffffffffffffffffffffffffffff821415610c8757610c86610c92565b5b600182019050919050565b7f4e487b7100000000000000000000000000000000000000000000000000000000600052601160045260246000fd5b7f4e487b7100000000000000000000000000000000000000000000000000000000600052602260045260246000fd5b7f4e487b7100000000000000000000000000000000000000000000000000000000600052604160045260246000fd5b6000601f19601f8301169050919050565b610d3981610bcb565b8114610d4457600080fd5b5056fea264697066735822122099a4272a7c283de2ab78363b28610d30b6cb038f80964613a66a1b18240ac44b64736f6c63430008000033",
  "immutableReferences": {},
  "source": "pragma solidity ^0.8.0;\n\ncontract TaskManager {\n    uint public taskCount = 0;\n    mapping(uint => Task) public tasks;\n\n    struct Task {\n        uint id;\n        address creator;\n        string description;\n        bool completed;\n        string ipfsHash; //  IPFS \n    }\n\n    event TaskCreated(uint id, address creator, string description);\n    event TaskCompleted(uint id, string ipfsHash);\n\n    // \n    function createTask(string memory _description) public {\n        taskCount++;\n        tasks[taskCount] = Task(taskCount, msg.sender, _description, false, \"\");\n        emit TaskCreated(taskCount, msg.sender, _description);\n    }\n\n    // \n    function completeTask(uint _id, string memory _ipfsHash) public {\n        require(_id > 0 && _id <= taskCount, \"Invalid task ID\");\n        Task storage task = tasks[_id];\n        require(!task.completed, \"Task already completed\");\n\n        task.completed = true;\n        task.ipfsHash = _ipfsHash; //  IPFS \n        emit TaskCompleted(_id, _ipfsHash);\n    }\n\n    // \n    function getTask(uint _id) public view returns (uint, address, string memory, bool, string memory) {\n        Task memory task = tasks[_id];\n        return (task.id, task.creator, task.description, task.completed, task.ipfsHash);\n    }\n}",
  "sourcePath": "/Users/minfeng/Documents/Documents/GitHub/DeLlmAgent/backend/contracts/ TaskManager.sol",
  "compiler": {
    "name": "solc",
    "version": "0.8.0+commit.c7dfd78e.Emscripten.clang"
  },
  "schemaVersion": "3.4.7",
  "updatedAt": "2025-02-03T07:58:59.219Z",
  "networkType": "ethereum",
  "devdoc": {
    "kind": "dev",
    "methods": {},
    "version": 1
  },
  "userdoc": {
    "kind": "user",
    "methods": {},
    "version": 1
  }
}